:1000000000308A0019280000223084008313000881
:10001000031918280130F800F701F70B0D28F80B29
:100020000C284A30F700F70B13281628800B0A28F3
:10003000080003081F39830083161F149F141F151F
:100040009F118313F0308600860183128601831688
:1000500006168312061E382883160610831206140D
:100060000430A100FA30A2000420A10B32283F285E
:1000700083160610831206106430A200042027287D
:0200800063001B
:02400E00733FFE
:00000001FF
;PIC16F877
;CRC=DDFA  CREATED="28-Nis-25 16:01"
